{"contracts/Registry.sol":{"ControlAccess":{"abi":[{"anonymous":false,"inputs":[{"indexed":true,"internalType":"address","name":"owner","type":"address"}],"name":"AddOwner","type":"event"},{"anonymous":false,"inputs":[{"indexed":true,"internalType":"address","name":"sender","type":"address"},{"indexed":true,"internalType":"uint256","name":"txId","type":"uint256"}],"name":"Approved","type":"event"},{"anonymous":false,"inputs":[{"indexed":true,"internalType":"address","name":"sender","type":"address"},{"indexed":false,"internalType":"uint256","name":"val","type":"uint256"}],"name":"Deposit","type":"event"},{"anonymous":false,"inputs":[{"indexed":true,"internalType":"uint256","name":"txId","type":"uint256"}],"name":"Executed","type":"event"},{"anonymous":false,"inputs":[{"indexed":true,"internalType":"uint256","name":"txId","type":"uint256"}],"name":"ExecutionFailed","type":"event"},{"anonymous":false,"inputs":[{"indexed":true,"internalType":"address","name":"owner","type":"address"}],"name":"RemoveOwner","type":"event"},{"anonymous":false,"inputs":[{"indexed":false,"internalType":"uint256","name":"requiredOwners","type":"uint256"}],"name":"RequiredOwnersUpdate","type":"event"},{"anonymous":false,"inputs":[{"indexed":true,"internalType":"address","name":"sender","type":"address"},{"indexed":true,"internalType":"uint256","name":"txId","type":"uint256"}],"name":"RevokeAccess","type":"event"},{"anonymous":false,"inputs":[{"indexed":true,"internalType":"uint256","name":"txId","type":"uint256"}],"name":"Submit","type":"event"},{"anonymous":false,"inputs":[{"indexed":true,"internalType":"address","name":"admin","type":"address"}],"name":"TransferAdmin","type":"event"},{"inputs":[{"internalType":"address","name":"from","type":"address"},{"internalType":"address","name":"to","type":"address"}],"name":"OwnerTransfer","outputs":[],"stateMutability":"nonpayable","type":"function"},{"inputs":[{"internalType":"address","name":"owner","type":"address"}],"name":"addOwner","outputs":[],"stateMutability":"nonpayable","type":"function"},{"inputs":[],"name":"admin","outputs":[{"internalType":"address","name":"","type":"address"}],"stateMutability":"view","type":"function"},{"inputs":[{"internalType":"address","name":"newAdmin","type":"address"}],"name":"changeAdmin","outputs":[],"stateMutability":"nonpayable","type":"function"},{"inputs":[{"internalType":"address","name":"","type":"address"}],"name":"isOwner","outputs":[{"internalType":"bool","name":"","type":"bool"}],"stateMutability":"view","type":"function"},{"inputs":[{"internalType":"uint256","name":"","type":"uint256"}],"name":"owners","outputs":[{"internalType":"address","name":"","type":"address"}],"stateMutability":"view","type":"function"},{"inputs":[{"internalType":"address","name":"owner","type":"address"}],"name":"removeOwner","outputs":[],"stateMutability":"nonpayable","type":"function"}],"evm":{"bytecode":{"linkReferences":{},"object":"608060405234801561001057600080fd5b50610aa2806100206000396000f3fe608060405234801561001057600080fd5b506004361061007d5760003560e01c80635327f96e1161005b5780635327f96e146100fa5780637065cb481461010d5780638f28397014610120578063f851a4401461013357600080fd5b8063025e7c2714610082578063173825d9146100b25780632f54bf6e146100c7575b600080fd5b610095610090366004610972565b610146565b6040516001600160a01b0390911681526020015b60405180910390f35b6100c56100c036600461091f565b610170565b005b6100ea6100d536600461091f565b60026020526000908152604090205460ff1681565b60405190151581526020016100a9565b6100c5610108366004610940565b6103ff565b6100c561011b36600461091f565b610697565b6100c561012e36600461091f565b610838565b600054610095906001600160a01b031681565b6001818154811061015657600080fd5b6000918252602090912001546001600160a01b0316905081565b6000546001600160a01b031633146101a35760405162461bcd60e51b815260040161019a9061098a565b60405180910390fd5b806001600160a01b0381166101ca5760405162461bcd60e51b815260040161019a906109ae565b6001600160a01b038216600090815260026020526040902054829060ff16151560011461022d5760405162461bcd60e51b81526020600482015260116024820152703cb7ba9030b932903737ba1027bbb732b960791b604482015260640161019a565b6001600160a01b0383166000908152600260205260408120805460ff191690555b6001805461025c9190610a24565b81101561039657836001600160a01b03166001828154811061028e57634e487b7160e01b600052603260045260246000fd5b6000918252602090912001546001600160a01b0316141561034357600180546102b8908290610a24565b815481106102d657634e487b7160e01b600052603260045260246000fd5b600091825260209091200154600180546001600160a01b03909216918390811061031057634e487b7160e01b600052603260045260246000fd5b9060005260206000200160006101000a8154816001600160a01b0302191690836001600160a01b03160217905550610396565b600180548061036257634e487b7160e01b600052603160045260246000fd5b600082815260209020810160001990810180546001600160a01b03191690550190558061038e81610a3b565b91505061024e565b506103fa60018054806020026020016040519081016040528092919081815260200182805480156103f057602002820191906000526020600020905b81546001600160a01b031681526001909101906020018083116103d2575b50505050506108aa565b505050565b6000546001600160a01b031633146104295760405162461bcd60e51b815260040161019a9061098a565b816001600160a01b0381166104505760405162461bcd60e51b815260040161019a906109ae565b816001600160a01b0381166104775760405162461bcd60e51b815260040161019a906109ae565b6001600160a01b038416600090815260026020526040902054849060ff1615156001146104da5760405162461bcd60e51b81526020600482015260116024820152703cb7ba9030b932903737ba1027bbb732b960791b604482015260640161019a565b6001600160a01b038416600090815260026020526040902054849060ff16156105415760405162461bcd60e51b815260206004820152601960248201527854686973204f776e657220616c72656164792065786973747360381b604482015260640161019a565b60005b6001548110156105fb57866001600160a01b03166001828154811061057957634e487b7160e01b600052603260045260246000fd5b6000918252602090912001546001600160a01b031614156105e95785600182815481106105b657634e487b7160e01b600052603260045260246000fd5b9060005260206000200160006101000a8154816001600160a01b0302191690836001600160a01b031602179055506105fb565b806105f381610a3b565b915050610544565b506001600160a01b03808716600081815260026020526040808220805460ff1990811690915593891682528082208054909416600117909355915190917fac6e8398676cf37429d530b81144d7079e99f4fe9d28b0d88c4a749ceccbe8cd91a26040516001600160a01b038616907fac1e9ef41b54c676ccf449d83ae6f2624bcdce8f5b93a6b48ce95874c332693d90600090a2505050505050565b6000546001600160a01b031633146106c15760405162461bcd60e51b815260040161019a9061098a565b806001600160a01b0381166106e85760405162461bcd60e51b815260040161019a906109ae565b6001600160a01b038216600090815260026020526040902054829060ff161561074f5760405162461bcd60e51b815260206004820152601960248201527854686973204f776e657220616c72656164792065786973747360381b604482015260640161019a565b6001600160a01b038316600081815260026020526040808220805460ff19166001908117909155805480820182559083527fb10e2d527612073b26eecdfd717e6a320cf44b4afac2b0732d9fcbe2b7fa0cf60180546001600160a01b03191684179055517fac1e9ef41b54c676ccf449d83ae6f2624bcdce8f5b93a6b48ce95874c332693d9190a26103fa60018054806020026020016040519081016040528092919081815260200182805480156103f0576020028201919060005260206000209081546001600160a01b031681526001909101906020018083116103d25750505050506108aa565b6000546001600160a01b031633146108625760405162461bcd60e51b815260040161019a9061098a565b600080546001600160a01b0319166001600160a01b038316908117825560405190917fda7b0a7bc965abdec8a1a995575a891838264c2968e14bd456c5391827b7aa3091a250565b60008151603c6108ba9190610a05565b90506108c76064826109e5565b60038190556040519081527f6b9d1e760d2bc35656f7015f224cfac8ae27f5bffb6fe3675e006ab0780952dd9060200160405180910390a15050565b80356001600160a01b038116811461091a57600080fd5b919050565b600060208284031215610930578081fd5b61093982610903565b9392505050565b60008060408385031215610952578081fd5b61095b83610903565b915061096960208401610903565b90509250929050565b600060208284031215610983578081fd5b5035919050565b6020808252600a908201526941646d696e204f6e6c7960b01b604082015260600190565b60208082526018908201527f5468652061646472657373206973204e6f742056616c69640000000000000000604082015260600190565b600082610a0057634e487b7160e01b81526012600452602481fd5b500490565b6000816000190483118215151615610a1f57610a1f610a56565b500290565b600082821015610a3657610a36610a56565b500390565b6000600019821415610a4f57610a4f610a56565b5060010190565b634e487b7160e01b600052601160045260246000fdfea26469706673582212203b8acc0c4762cf97471db9036e8b8163dcc6080f115e3c3350c5fb84261beb2864736f6c63430008040033","opcodes":"PUSH1 0x80 PUSH1 0x40 MSTORE CALLVALUE DUP1 ISZERO PUSH2 0x10 JUMPI PUSH1 0x0 DUP1 REVERT JUMPDEST POP PUSH2 0xAA2 DUP1 PUSH2 0x20 PUSH1 0x0 CODECOPY PUSH1 0x0 RETURN INVALID PUSH1 0x80 PUSH1 0x40 MSTORE CALLVALUE DUP1 ISZERO PUSH2 0x10 JUMPI PUSH1 0x0 DUP1 REVERT JUMPDEST POP PUSH1 0x4 CALLDATASIZE LT PUSH2 0x7D JUMPI PUSH1 0x0 CALLDATALOAD PUSH1 0xE0 SHR DUP1 PUSH4 0x5327F96E GT PUSH2 0x5B JUMPI DUP1 PUSH4 0x5327F96E EQ PUSH2 0xFA JUMPI DUP1 PUSH4 0x7065CB48 EQ PUSH2 0x10D JUMPI DUP1 PUSH4 0x8F283970 EQ PUSH2 0x120 JUMPI DUP1 PUSH4 0xF851A440 EQ PUSH2 0x133 JUMPI PUSH1 0x0 DUP1 REVERT JUMPDEST DUP1 PUSH4 0x25E7C27 EQ PUSH2 0x82 JUMPI DUP1 PUSH4 0x173825D9 EQ PUSH2 0xB2 JUMPI DUP1 PUSH4 0x2F54BF6E EQ PUSH2 0xC7 JUMPI JUMPDEST PUSH1 0x0 DUP1 REVERT JUMPDEST PUSH2 0x95 PUSH2 0x90 CALLDATASIZE PUSH1 0x4 PUSH2 0x972 JUMP JUMPDEST PUSH2 0x146 JUMP JUMPDEST PUSH1 0x40 MLOAD PUSH1 0x1 PUSH1 0x1 PUSH1 0xA0 SHL SUB SWAP1 SWAP2 AND DUP2 MSTORE PUSH1 0x20 ADD JUMPDEST PUSH1 0x40 MLOAD DUP1 SWAP2 SUB SWAP1 RETURN JUMPDEST PUSH2 0xC5 PUSH2 0xC0 CALLDATASIZE PUSH1 0x4 PUSH2 0x91F JUMP JUMPDEST PUSH2 0x170 JUMP JUMPDEST STOP JUMPDEST PUSH2 0xEA PUSH2 0xD5 CALLDATASIZE PUSH1 0x4 PUSH2 0x91F JUMP JUMPDEST PUSH1 0x2 PUSH1 0x20 MSTORE PUSH1 0x0 SWAP1 DUP2 MSTORE PUSH1 0x40 SWAP1 KECCAK256 SLOAD PUSH1 0xFF AND DUP2 JUMP JUMPDEST PUSH1 0x40 MLOAD SWAP1 ISZERO ISZERO DUP2 MSTORE PUSH1 0x20 ADD PUSH2 0xA9 JUMP JUMPDEST PUSH2 0xC5 PUSH2 0x108 CALLDATASIZE PUSH1 0x4 PUSH2 0x940 JUMP JUMPDEST PUSH2 0x3FF JUMP JUMPDEST PUSH2 0xC5 PUSH2 0x11B CALLDATASIZE PUSH1 0x4 PUSH2 0x91F JUMP JUMPDEST PUSH2 0x697 JUMP JUMPDEST PUSH2 0xC5 PUSH2 0x12E CALLDATASIZE PUSH1 0x4 PUSH2 0x91F JUMP JUMPDEST PUSH2 0x838 JUMP JUMPDEST PUSH1 0x0 SLOAD PUSH2 0x95 SWAP1 PUSH1 0x1 PUSH1 0x1 PUSH1 0xA0 SHL SUB AND DUP2 JUMP JUMPDEST PUSH1 0x1 DUP2 DUP2 SLOAD DUP2 LT PUSH2 0x156 JUMPI PUSH1 0x0 DUP1 REVERT JUMPDEST PUSH1 0x0 SWAP2 DUP3 MSTORE PUSH1 0x20 SWAP1 SWAP2 KECCAK256 ADD SLOAD PUSH1 0x1 PUSH1 0x1 PUSH1 0xA0 SHL SUB AND SWAP1 POP DUP2 JUMP JUMPDEST PUSH1 0x0 SLOAD PUSH1 0x1 PUSH1 0x1 PUSH1 0xA0 SHL SUB AND CALLER EQ PUSH2 0x1A3 JUMPI PUSH1 0x40 MLOAD PUSH3 0x461BCD PUSH1 0xE5 SHL DUP2 MSTORE PUSH1 0x4 ADD PUSH2 0x19A SWAP1 PUSH2 0x98A JUMP JUMPDEST PUSH1 0x40 MLOAD DUP1 SWAP2 SUB SWAP1 REVERT JUMPDEST DUP1 PUSH1 0x1 PUSH1 0x1 PUSH1 0xA0 SHL SUB DUP2 AND PUSH2 0x1CA JUMPI PUSH1 0x40 MLOAD PUSH3 0x461BCD PUSH1 0xE5 SHL DUP2 MSTORE PUSH1 0x4 ADD PUSH2 0x19A SWAP1 PUSH2 0x9AE JUMP JUMPDEST PUSH1 0x1 PUSH1 0x1 PUSH1 0xA0 SHL SUB DUP3 AND PUSH1 0x0 SWAP1 DUP2 MSTORE PUSH1 0x2 PUSH1 0x20 MSTORE PUSH1 0x40 SWAP1 KECCAK256 SLOAD DUP3 SWAP1 PUSH1 0xFF AND ISZERO ISZERO PUSH1 0x1 EQ PUSH2 0x22D JUMPI PUSH1 0x40 MLOAD PUSH3 0x461BCD PUSH1 0xE5 SHL DUP2 MSTORE PUSH1 0x20 PUSH1 0x4 DUP3 ADD MSTORE PUSH1 0x11 PUSH1 0x24 DUP3 ADD MSTORE PUSH17 0x3CB7BA9030B932903737BA1027BBB732B9 PUSH1 0x79 SHL PUSH1 0x44 DUP3 ADD MSTORE PUSH1 0x64 ADD PUSH2 0x19A JUMP JUMPDEST PUSH1 0x1 PUSH1 0x1 PUSH1 0xA0 SHL SUB DUP4 AND PUSH1 0x0 SWAP1 DUP2 MSTORE PUSH1 0x2 PUSH1 0x20 MSTORE PUSH1 0x40 DUP2 KECCAK256 DUP1 SLOAD PUSH1 0xFF NOT AND SWAP1 SSTORE JUMPDEST PUSH1 0x1 DUP1 SLOAD PUSH2 0x25C SWAP2 SWAP1 PUSH2 0xA24 JUMP JUMPDEST DUP2 LT ISZERO PUSH2 0x396 JUMPI DUP4 PUSH1 0x1 PUSH1 0x1 PUSH1 0xA0 SHL SUB AND PUSH1 0x1 DUP3 DUP2 SLOAD DUP2 LT PUSH2 0x28E JUMPI PUSH4 0x4E487B71 PUSH1 0xE0 SHL PUSH1 0x0 MSTORE PUSH1 0x32 PUSH1 0x4 MSTORE PUSH1 0x24 PUSH1 0x0 REVERT JUMPDEST PUSH1 0x0 SWAP2 DUP3 MSTORE PUSH1 0x20 SWAP1 SWAP2 KECCAK256 ADD SLOAD PUSH1 0x1 PUSH1 0x1 PUSH1 0xA0 SHL SUB AND EQ ISZERO PUSH2 0x343 JUMPI PUSH1 0x1 DUP1 SLOAD PUSH2 0x2B8 SWAP1 DUP3 SWAP1 PUSH2 0xA24 JUMP JUMPDEST DUP2 SLOAD DUP2 LT PUSH2 0x2D6 JUMPI PUSH4 0x4E487B71 PUSH1 0xE0 SHL PUSH1 0x0 MSTORE PUSH1 0x32 PUSH1 0x4 MSTORE PUSH1 0x24 PUSH1 0x0 REVERT JUMPDEST PUSH1 0x0 SWAP2 DUP3 MSTORE PUSH1 0x20 SWAP1 SWAP2 KECCAK256 ADD SLOAD PUSH1 0x1 DUP1 SLOAD PUSH1 0x1 PUSH1 0x1 PUSH1 0xA0 SHL SUB SWAP1 SWAP3 AND SWAP2 DUP4 SWAP1 DUP2 LT PUSH2 0x310 JUMPI PUSH4 0x4E487B71 PUSH1 0xE0 SHL PUSH1 0x0 MSTORE PUSH1 0x32 PUSH1 0x4 MSTORE PUSH1 0x24 PUSH1 0x0 REVERT JUMPDEST SWAP1 PUSH1 0x0 MSTORE PUSH1 0x20 PUSH1 0x0 KECCAK256 ADD PUSH1 0x0 PUSH2 0x100 EXP DUP2 SLOAD DUP2 PUSH1 0x1 PUSH1 0x1 PUSH1 0xA0 SHL SUB MUL NOT AND SWAP1 DUP4 PUSH1 0x1 PUSH1 0x1 PUSH1 0xA0 SHL SUB AND MUL OR SWAP1 SSTORE POP PUSH2 0x396 JUMP JUMPDEST PUSH1 0x1 DUP1 SLOAD DUP1 PUSH2 0x362 JUMPI PUSH4 0x4E487B71 PUSH1 0xE0 SHL PUSH1 0x0 MSTORE PUSH1 0x31 PUSH1 0x4 MSTORE PUSH1 0x24 PUSH1 0x0 REVERT JUMPDEST PUSH1 0x0 DUP3 DUP2 MSTORE PUSH1 0x20 SWAP1 KECCAK256 DUP2 ADD PUSH1 0x0 NOT SWAP1 DUP2 ADD DUP1 SLOAD PUSH1 0x1 PUSH1 0x1 PUSH1 0xA0 SHL SUB NOT AND SWAP1 SSTORE ADD SWAP1 SSTORE DUP1 PUSH2 0x38E DUP2 PUSH2 0xA3B JUMP JUMPDEST SWAP2 POP POP PUSH2 0x24E JUMP JUMPDEST POP PUSH2 0x3FA PUSH1 0x1 DUP1 SLOAD DUP1 PUSH1 0x20 MUL PUSH1 0x20 ADD PUSH1 0x40 MLOAD SWAP1 DUP2 ADD PUSH1 0x40 MSTORE DUP1 SWAP3 SWAP2 SWAP1 DUP2 DUP2 MSTORE PUSH1 0x20 ADD DUP3 DUP1 SLOAD DUP1 ISZERO PUSH2 0x3F0 JUMPI PUSH1 0x20 MUL DUP3 ADD SWAP2 SWAP1 PUSH1 0x0 MSTORE PUSH1 0x20 PUSH1 0x0 KECCAK256 SWAP1 JUMPDEST DUP2 SLOAD PUSH1 0x1 PUSH1 0x1 PUSH1 0xA0 SHL SUB AND DUP2 MSTORE PUSH1 0x1 SWAP1 SWAP2 ADD SWAP1 PUSH1 0x20 ADD DUP1 DUP4 GT PUSH2 0x3D2 JUMPI JUMPDEST POP POP POP POP POP PUSH2 0x8AA JUMP JUMPDEST POP POP POP JUMP JUMPDEST PUSH1 0x0 SLOAD PUSH1 0x1 PUSH1 0x1 PUSH1 0xA0 SHL SUB AND CALLER EQ PUSH2 0x429 JUMPI PUSH1 0x40 MLOAD PUSH3 0x461BCD PUSH1 0xE5 SHL DUP2 MSTORE PUSH1 0x4 ADD PUSH2 0x19A SWAP1 PUSH2 0x98A JUMP JUMPDEST DUP2 PUSH1 0x1 PUSH1 0x1 PUSH1 0xA0 SHL SUB DUP2 AND PUSH2 0x450 JUMPI PUSH1 0x40 MLOAD PUSH3 0x461BCD PUSH1 0xE5 SHL DUP2 MSTORE PUSH1 0x4 ADD PUSH2 0x19A SWAP1 PUSH2 0x9AE JUMP JUMPDEST DUP2 PUSH1 0x1 PUSH1 0x1 PUSH1 0xA0 SHL SUB DUP2 AND PUSH2 0x477 JUMPI PUSH1 0x40 MLOAD PUSH3 0x461BCD PUSH1 0xE5 SHL DUP2 MSTORE PUSH1 0x4 ADD PUSH2 0x19A SWAP1 PUSH2 0x9AE JUMP JUMPDEST PUSH1 0x1 PUSH1 0x1 PUSH1 0xA0 SHL SUB DUP5 AND PUSH1 0x0 SWAP1 DUP2 MSTORE PUSH1 0x2 PUSH1 0x20 MSTORE PUSH1 0x40 SWAP1 KECCAK256 SLOAD DUP5 SWAP1 PUSH1 0xFF AND ISZERO ISZERO PUSH1 0x1 EQ PUSH2 0x4DA JUMPI PUSH1 0x40 MLOAD PUSH3 0x461BCD PUSH1 0xE5 SHL DUP2 MSTORE PUSH1 0x20 PUSH1 0x4 DUP3 ADD MSTORE PUSH1 0x11 PUSH1 0x24 DUP3 ADD MSTORE PUSH17 0x3CB7BA9030B932903737BA1027BBB732B9 PUSH1 0x79 SHL PUSH1 0x44 DUP3 ADD MSTORE PUSH1 0x64 ADD PUSH2 0x19A JUMP JUMPDEST PUSH1 0x1 PUSH1 0x1 PUSH1 0xA0 SHL SUB DUP5 AND PUSH1 0x0 SWAP1 DUP2 MSTORE PUSH1 0x2 PUSH1 0x20 MSTORE PUSH1 0x40 SWAP1 KECCAK256 SLOAD DUP5 SWAP1 PUSH1 0xFF AND ISZERO PUSH2 0x541 JUMPI PUSH1 0x40 MLOAD PUSH3 0x461BCD PUSH1 0xE5 SHL DUP2 MSTORE PUSH1 0x20 PUSH1 0x4 DUP3 ADD MSTORE PUSH1 0x19 PUSH1 0x24 DUP3 ADD MSTORE PUSH25 0x54686973204F776E657220616C726561647920657869737473 PUSH1 0x38 SHL PUSH1 0x44 DUP3 ADD MSTORE PUSH1 0x64 ADD PUSH2 0x19A JUMP JUMPDEST PUSH1 0x0 JUMPDEST PUSH1 0x1 SLOAD DUP2 LT ISZERO PUSH2 0x5FB JUMPI DUP7 PUSH1 0x1 PUSH1 0x1 PUSH1 0xA0 SHL SUB AND PUSH1 0x1 DUP3 DUP2 SLOAD DUP2 LT PUSH2 0x579 JUMPI PUSH4 0x4E487B71 PUSH1 0xE0 SHL PUSH1 0x0 MSTORE PUSH1 0x32 PUSH1 0x4 MSTORE PUSH1 0x24 PUSH1 0x0 REVERT JUMPDEST PUSH1 0x0 SWAP2 DUP3 MSTORE PUSH1 0x20 SWAP1 SWAP2 KECCAK256 ADD SLOAD PUSH1 0x1 PUSH1 0x1 PUSH1 0xA0 SHL SUB AND EQ ISZERO PUSH2 0x5E9 JUMPI DUP6 PUSH1 0x1 DUP3 DUP2 SLOAD DUP2 LT PUSH2 0x5B6 JUMPI PUSH4 0x4E487B71 PUSH1 0xE0 SHL PUSH1 0x0 MSTORE PUSH1 0x32 PUSH1 0x4 MSTORE PUSH1 0x24 PUSH1 0x0 REVERT JUMPDEST SWAP1 PUSH1 0x0 MSTORE PUSH1 0x20 PUSH1 0x0 KECCAK256 ADD PUSH1 0x0 PUSH2 0x100 EXP DUP2 SLOAD DUP2 PUSH1 0x1 PUSH1 0x1 PUSH1 0xA0 SHL SUB MUL NOT AND SWAP1 DUP4 PUSH1 0x1 PUSH1 0x1 PUSH1 0xA0 SHL SUB AND MUL OR SWAP1 SSTORE POP PUSH2 0x5FB JUMP JUMPDEST DUP1 PUSH2 0x5F3 DUP2 PUSH2 0xA3B JUMP JUMPDEST SWAP2 POP POP PUSH2 0x544 JUMP JUMPDEST POP PUSH1 0x1 PUSH1 0x1 PUSH1 0xA0 SHL SUB DUP1 DUP8 AND PUSH1 0x0 DUP2 DUP2 MSTORE PUSH1 0x2 PUSH1 0x20 MSTORE PUSH1 0x40 DUP1 DUP3 KECCAK256 DUP1 SLOAD PUSH1 0xFF NOT SWAP1 DUP2 AND SWAP1 SWAP2 SSTORE SWAP4 DUP10 AND DUP3 MSTORE DUP1 DUP3 KECCAK256 DUP1 SLOAD SWAP1 SWAP5 AND PUSH1 0x1 OR SWAP1 SWAP4 SSTORE SWAP2 MLOAD SWAP1 SWAP2 PUSH32 0xAC6E8398676CF37429D530B81144D7079E99F4FE9D28B0D88C4A749CECCBE8CD SWAP2 LOG2 PUSH1 0x40 MLOAD PUSH1 0x1 PUSH1 0x1 PUSH1 0xA0 SHL SUB DUP7 AND SWAP1 PUSH32 0xAC1E9EF41B54C676CCF449D83AE6F2624BCDCE8F5B93A6B48CE95874C332693D SWAP1 PUSH1 0x0 SWAP1 LOG2 POP POP POP POP POP POP JUMP JUMPDEST PUSH1 0x0 SLOAD PUSH1 0x1 PUSH1 0x1 PUSH1 0xA0 SHL SUB AND CALLER EQ PUSH2 0x6C1 JUMPI PUSH1 0x40 MLOAD PUSH3 0x461BCD PUSH1 0xE5 SHL DUP2 MSTORE PUSH1 0x4 ADD PUSH2 0x19A SWAP1 PUSH2 0x98A JUMP JUMPDEST DUP1 PUSH1 0x1 PUSH1 0x1 PUSH1 0xA0 SHL SUB DUP2 AND PUSH2 0x6E8 JUMPI PUSH1 0x40 MLOAD PUSH3 0x461BCD PUSH1 0xE5 SHL DUP2 MSTORE PUSH1 0x4 ADD PUSH2 0x19A SWAP1 PUSH2 0x9AE JUMP JUMPDEST PUSH1 0x1 PUSH1 0x1 PUSH1 0xA0 SHL SUB DUP3 AND PUSH1 0x0 SWAP1 DUP2 MSTORE PUSH1 0x2 PUSH1 0x20 MSTORE PUSH1 0x40 SWAP1 KECCAK256 SLOAD DUP3 SWAP1 PUSH1 0xFF AND ISZERO PUSH2 0x74F JUMPI PUSH1 0x40 MLOAD PUSH3 0x461BCD PUSH1 0xE5 SHL DUP2 MSTORE PUSH1 0x20 PUSH1 0x4 DUP3 ADD MSTORE PUSH1 0x19 PUSH1 0x24 DUP3 ADD MSTORE PUSH25 0x54686973204F776E657220616C726561647920657869737473 PUSH1 0x38 SHL PUSH1 0x44 DUP3 ADD MSTORE PUSH1 0x64 ADD PUSH2 0x19A JUMP JUMPDEST PUSH1 0x1 PUSH1 0x1 PUSH1 0xA0 SHL SUB DUP4 AND PUSH1 0x0 DUP2 DUP2 MSTORE PUSH1 0x2 PUSH1 0x20 MSTORE PUSH1 0x40 DUP1 DUP3 KECCAK256 DUP1 SLOAD PUSH1 0xFF NOT AND PUSH1 0x1 SWAP1 DUP2 OR SWAP1 SWAP2 SSTORE DUP1 SLOAD DUP1 DUP3 ADD DUP3 SSTORE SWAP1 DUP4 MSTORE PUSH32 0xB10E2D527612073B26EECDFD717E6A320CF44B4AFAC2B0732D9FCBE2B7FA0CF6 ADD DUP1 SLOAD PUSH1 0x1 PUSH1 0x1 PUSH1 0xA0 SHL SUB NOT AND DUP5 OR SWAP1 SSTORE MLOAD PUSH32 0xAC1E9EF41B54C676CCF449D83AE6F2624BCDCE8F5B93A6B48CE95874C332693D SWAP2 SWAP1 LOG2 PUSH2 0x3FA PUSH1 0x1 DUP1 SLOAD DUP1 PUSH1 0x20 MUL PUSH1 0x20 ADD PUSH1 0x40 MLOAD SWAP1 DUP2 ADD PUSH1 0x40 MSTORE DUP1 SWAP3 SWAP2 SWAP1 DUP2 DUP2 MSTORE PUSH1 0x20 ADD DUP3 DUP1 SLOAD DUP1 ISZERO PUSH2 0x3F0 JUMPI PUSH1 0x20 MUL DUP3 ADD SWAP2 SWAP1 PUSH1 0x0 MSTORE PUSH1 0x20 PUSH1 0x0 KECCAK256 SWAP1 DUP2 SLOAD PUSH1 0x1 PUSH1 0x1 PUSH1 0xA0 SHL SUB AND DUP2 MSTORE PUSH1 0x1 SWAP1 SWAP2 ADD SWAP1 PUSH1 0x20 ADD DUP1 DUP4 GT PUSH2 0x3D2 JUMPI POP POP POP POP POP PUSH2 0x8AA JUMP JUMPDEST PUSH1 0x0 SLOAD PUSH1 0x1 PUSH1 0x1 PUSH1 0xA0 SHL SUB AND CALLER EQ PUSH2 0x862 JUMPI PUSH1 0x40 MLOAD PUSH3 0x461BCD PUSH1 0xE5 SHL DUP2 MSTORE PUSH1 0x4 ADD PUSH2 0x19A SWAP1 PUSH2 0x98A JUMP JUMPDEST PUSH1 0x0 DUP1 SLOAD PUSH1 0x1 PUSH1 0x1 PUSH1 0xA0 SHL SUB NOT AND PUSH1 0x1 PUSH1 0x1 PUSH1 0xA0 SHL SUB DUP4 AND SWAP1 DUP2 OR DUP3 SSTORE PUSH1 0x40 MLOAD SWAP1 SWAP2 PUSH32 0xDA7B0A7BC965ABDEC8A1A995575A891838264C2968E14BD456C5391827B7AA30 SWAP2 LOG2 POP JUMP JUMPDEST PUSH1 0x0 DUP2 MLOAD PUSH1 0x3C PUSH2 0x8BA SWAP2 SWAP1 PUSH2 0xA05 JUMP JUMPDEST SWAP1 POP PUSH2 0x8C7 PUSH1 0x64 DUP3 PUSH2 0x9E5 JUMP JUMPDEST PUSH1 0x3 DUP2 SWAP1 SSTORE PUSH1 0x40 MLOAD SWAP1 DUP2 MSTORE PUSH32 0x6B9D1E760D2BC35656F7015F224CFAC8AE27F5BFFB6FE3675E006AB0780952DD SWAP1 PUSH1 0x20 ADD PUSH1 0x40 MLOAD DUP1 SWAP2 SUB SWAP1 LOG1 POP POP JUMP JUMPDEST DUP1 CALLDATALOAD PUSH1 0x1 PUSH1 0x1 PUSH1 0xA0 SHL SUB DUP2 AND DUP2 EQ PUSH2 0x91A JUMPI PUSH1 0x0 DUP1 REVERT JUMPDEST SWAP2 SWAP1 POP JUMP JUMPDEST PUSH1 0x0 PUSH1 0x20 DUP3 DUP5 SUB SLT ISZERO PUSH2 0x930 JUMPI DUP1 DUP2 REVERT JUMPDEST PUSH2 0x939 DUP3 PUSH2 0x903 JUMP JUMPDEST SWAP4 SWAP3 POP POP POP JUMP JUMPDEST PUSH1 0x0 DUP1 PUSH1 0x40 DUP4 DUP6 SUB SLT ISZERO PUSH2 0x952 JUMPI DUP1 DUP2 REVERT JUMPDEST PUSH2 0x95B DUP4 PUSH2 0x903 JUMP JUMPDEST SWAP2 POP PUSH2 0x969 PUSH1 0x20 DUP5 ADD PUSH2 0x903 JUMP JUMPDEST SWAP1 POP SWAP3 POP SWAP3 SWAP1 POP JUMP JUMPDEST PUSH1 0x0 PUSH1 0x20 DUP3 DUP5 SUB SLT ISZERO PUSH2 0x983 JUMPI DUP1 DUP2 REVERT JUMPDEST POP CALLDATALOAD SWAP2 SWAP1 POP JUMP JUMPDEST PUSH1 0x20 DUP1 DUP3 MSTORE PUSH1 0xA SWAP1 DUP3 ADD MSTORE PUSH10 0x41646D696E204F6E6C79 PUSH1 0xB0 SHL PUSH1 0x40 DUP3 ADD MSTORE PUSH1 0x60 ADD SWAP1 JUMP JUMPDEST PUSH1 0x20 DUP1 DUP3 MSTORE PUSH1 0x18 SWAP1 DUP3 ADD MSTORE PUSH32 0x5468652061646472657373206973204E6F742056616C69640000000000000000 PUSH1 0x40 DUP3 ADD MSTORE PUSH1 0x60 ADD SWAP1 JUMP JUMPDEST PUSH1 0x0 DUP3 PUSH2 0xA00 JUMPI PUSH4 0x4E487B71 PUSH1 0xE0 SHL DUP2 MSTORE PUSH1 0x12 PUSH1 0x4 MSTORE PUSH1 0x24 DUP2 REVERT JUMPDEST POP DIV SWAP1 JUMP JUMPDEST PUSH1 0x0 DUP2 PUSH1 0x0 NOT DIV DUP4 GT DUP3 ISZERO ISZERO AND ISZERO PUSH2 0xA1F JUMPI PUSH2 0xA1F PUSH2 0xA56 JUMP JUMPDEST POP MUL SWAP1 JUMP JUMPDEST PUSH1 0x0 DUP3 DUP3 LT ISZERO PUSH2 0xA36 JUMPI PUSH2 0xA36 PUSH2 0xA56 JUMP JUMPDEST POP SUB SWAP1 JUMP JUMPDEST PUSH1 0x0 PUSH1 0x0 NOT DUP3 EQ ISZERO PUSH2 0xA4F JUMPI PUSH2 0xA4F PUSH2 0xA56 JUMP JUMPDEST POP PUSH1 0x1 ADD SWAP1 JUMP JUMPDEST PUSH4 0x4E487B71 PUSH1 0xE0 SHL PUSH1 0x0 MSTORE PUSH1 0x11 PUSH1 0x4 MSTORE PUSH1 0x24 PUSH1 0x0 REVERT INVALID LOG2 PUSH5 0x6970667358 0x22 SLT KECCAK256 EXTCODESIZE DUP11 0xCC 0xC SELFBALANCE PUSH3 0xCF9747 SAR 0xB9 SUB PUSH15 0x8B8163DCC6080F115E3C3350C5FB84 0x26 SHL 0xEB 0x28 PUSH5 0x736F6C6343 STOP ADDMOD DIV STOP CALLER "},"methodIdentifiers":{"OwnerTransfer(address,address)":"5327f96e","addOwner(address)":"7065cb48","admin()":"f851a440","changeAdmin(address)":"8f283970","isOwner(address)":"2f54bf6e","owners(uint256)":"025e7c27","removeOwner(address)":"173825d9"}}}}}