{
  "_format": "hh-sol-artifact-1",
  "contractName": "MultiSigWallet",
  "sourceName": "contracts/MultiSigWallet.sol",
  "abi": [
    {
      "inputs": [
        {
          "internalType": "address[]",
          "name": "_owners",
          "type": "address[]"
        }
      ],
      "stateMutability": "nonpayable",
      "type": "constructor"
    },
    {
      "anonymous": false,
      "inputs": [
        {
          "indexed": true,
          "internalType": "address",
          "name": "owner",
          "type": "address"
        }
      ],
      "name": "AddOwner",
      "type": "event"
    },
    {
      "anonymous": false,
      "inputs": [
        {
          "indexed": true,
          "internalType": "address",
          "name": "sender",
          "type": "address"
        },
        {
          "indexed": true,
          "internalType": "uint256",
          "name": "txId",
          "type": "uint256"
        }
      ],
      "name": "Approved",
      "type": "event"
    },
    {
      "anonymous": false,
      "inputs": [
        {
          "indexed": true,
          "internalType": "address",
          "name": "sender",
          "type": "address"
        },
        {
          "indexed": false,
          "internalType": "uint256",
          "name": "val",
          "type": "uint256"
        }
      ],
      "name": "Deposit",
      "type": "event"
    },
    {
      "anonymous": false,
      "inputs": [
        {
          "indexed": true,
          "internalType": "uint256",
          "name": "txId",
          "type": "uint256"
        }
      ],
      "name": "Executed",
      "type": "event"
    },
    {
      "anonymous": false,
      "inputs": [
        {
          "indexed": true,
          "internalType": "uint256",
          "name": "txId",
          "type": "uint256"
        }
      ],
      "name": "ExecutionFailed",
      "type": "event"
    },
    {
      "anonymous": false,
      "inputs": [
        {
          "indexed": true,
          "internalType": "address",
          "name": "owner",
          "type": "address"
        }
      ],
      "name": "RemoveOwner",
      "type": "event"
    },
    {
      "anonymous": false,
      "inputs": [
        {
          "indexed": false,
          "internalType": "uint256",
          "name": "requiredOwners",
          "type": "uint256"
        }
      ],
      "name": "RequiredOwnersUpdate",
      "type": "event"
    },
    {
      "anonymous": false,
      "inputs": [
        {
          "indexed": true,
          "internalType": "address",
          "name": "sender",
          "type": "address"
        },
        {
          "indexed": true,
          "internalType": "uint256",
          "name": "txId",
          "type": "uint256"
        }
      ],
      "name": "RevokeAccess",
      "type": "event"
    },
    {
      "anonymous": false,
      "inputs": [
        {
          "indexed": true,
          "internalType": "uint256",
          "name": "txId",
          "type": "uint256"
        }
      ],
      "name": "Submit",
      "type": "event"
    },
    {
      "anonymous": false,
      "inputs": [
        {
          "indexed": true,
          "internalType": "address",
          "name": "admin",
          "type": "address"
        }
      ],
      "name": "TransferAdmin",
      "type": "event"
    },
    {
      "inputs": [
        {
          "internalType": "address",
          "name": "from",
          "type": "address"
        },
        {
          "internalType": "address",
          "name": "to",
          "type": "address"
        }
      ],
      "name": "OwnerTransfer",
      "outputs": [],
      "stateMutability": "nonpayable",
      "type": "function"
    },
    {
      "inputs": [
        {
          "internalType": "address",
          "name": "owner",
          "type": "address"
        }
      ],
      "name": "addOwner",
      "outputs": [],
      "stateMutability": "nonpayable",
      "type": "function"
    },
    {
      "inputs": [],
      "name": "admin",
      "outputs": [
        {
          "internalType": "address",
          "name": "",
          "type": "address"
        }
      ],
      "stateMutability": "view",
      "type": "function"
    },
    {
      "inputs": [
        {
          "internalType": "uint256",
          "name": "",
          "type": "uint256"
        },
        {
          "internalType": "address",
          "name": "",
          "type": "address"
        }
      ],
      "name": "approved",
      "outputs": [
        {
          "internalType": "bool",
          "name": "",
          "type": "bool"
        }
      ],
      "stateMutability": "view",
      "type": "function"
    },
    {
      "inputs": [
        {
          "internalType": "address",
          "name": "newAdmin",
          "type": "address"
        }
      ],
      "name": "changeAdmin",
      "outputs": [],
      "stateMutability": "nonpayable",
      "type": "function"
    },
    {
      "inputs": [
        {
          "internalType": "uint256",
          "name": "transactionId",
          "type": "uint256"
        }
      ],
      "name": "confirmTransaction",
      "outputs": [],
      "stateMutability": "nonpayable",
      "type": "function"
    },
    {
      "inputs": [
        {
          "internalType": "uint256",
          "name": "transactionId",
          "type": "uint256"
        }
      ],
      "name": "executeTransaction",
      "outputs": [],
      "stateMutability": "nonpayable",
      "type": "function"
    },
    {
      "inputs": [],
      "name": "getApprovedSignatures",
      "outputs": [
        {
          "internalType": "uint256",
          "name": "",
          "type": "uint256"
        }
      ],
      "stateMutability": "view",
      "type": "function"
    },
    {
      "inputs": [],
      "name": "getOwners",
      "outputs": [
        {
          "internalType": "address[]",
          "name": "",
          "type": "address[]"
        }
      ],
      "stateMutability": "view",
      "type": "function"
    },
    {
      "inputs": [],
      "name": "getValidTransactions",
      "outputs": [
        {
          "components": [
            {
              "internalType": "address",
              "name": "to",
              "type": "address"
            },
            {
              "internalType": "uint256",
              "name": "value",
              "type": "uint256"
            },
            {
              "internalType": "bytes",
              "name": "data",
              "type": "bytes"
            },
            {
              "internalType": "bool",
              "name": "executed",
              "type": "bool"
            }
          ],
          "internalType": "struct MultiSigWallet.Transaction[]",
          "name": "",
          "type": "tuple[]"
        }
      ],
      "stateMutability": "view",
      "type": "function"
    },
    {
      "inputs": [
        {
          "internalType": "address",
          "name": "",
          "type": "address"
        }
      ],
      "name": "isOwner",
      "outputs": [
        {
          "internalType": "bool",
          "name": "",
          "type": "bool"
        }
      ],
      "stateMutability": "view",
      "type": "function"
    },
    {
      "inputs": [
        {
          "internalType": "uint256",
          "name": "",
          "type": "uint256"
        }
      ],
      "name": "owners",
      "outputs": [
        {
          "internalType": "address",
          "name": "",
          "type": "address"
        }
      ],
      "stateMutability": "view",
      "type": "function"
    },
    {
      "inputs": [
        {
          "internalType": "address",
          "name": "owner",
          "type": "address"
        }
      ],
      "name": "removeOwner",
      "outputs": [],
      "stateMutability": "nonpayable",
      "type": "function"
    },
    {
      "inputs": [
        {
          "internalType": "uint256",
          "name": "transactionId",
          "type": "uint256"
        }
      ],
      "name": "revokeTransaction",
      "outputs": [],
      "stateMutability": "nonpayable",
      "type": "function"
    },
    {
      "inputs": [
        {
          "internalType": "address",
          "name": "_to",
          "type": "address"
        },
        {
          "internalType": "uint256",
          "name": "_value",
          "type": "uint256"
        },
        {
          "internalType": "bytes",
          "name": "_data",
          "type": "bytes"
        }
      ],
      "name": "submitTransaction",
      "outputs": [
        {
          "internalType": "uint256",
          "name": "transactionId",
          "type": "uint256"
        }
      ],
      "stateMutability": "nonpayable",
      "type": "function"
    },
    {
      "inputs": [],
      "name": "transactionCount",
      "outputs": [
        {
          "internalType": "uint256",
          "name": "",
          "type": "uint256"
        }
      ],
      "stateMutability": "view",
      "type": "function"
    },
    {
      "inputs": [
        {
          "internalType": "uint256",
          "name": "",
          "type": "uint256"
        }
      ],
      "name": "transactions",
      "outputs": [
        {
          "internalType": "address",
          "name": "to",
          "type": "address"
        },
        {
          "internalType": "uint256",
          "name": "value",
          "type": "uint256"
        },
        {
          "internalType": "bytes",
          "name": "data",
          "type": "bytes"
        },
        {
          "internalType": "bool",
          "name": "executed",
          "type": "bool"
        }
      ],
      "stateMutability": "view",
      "type": "function"
    },
    {
      "inputs": [
        {
          "internalType": "uint256",
          "name": "",
          "type": "uint256"
        }
      ],
      "name": "validtransactions",
      "outputs": [
        {
          "internalType": "address",
          "name": "to",
          "type": "address"
        },
        {
          "internalType": "uint256",
          "name": "value",
          "type": "uint256"
        },
        {
          "internalType": "bytes",
          "name": "data",
          "type": "bytes"
        },
        {
          "internalType": "bool",
          "name": "executed",
          "type": "bool"
        }
      ],
      "stateMutability": "view",
      "type": "function"
    },
    {
      "stateMutability": "payable",
      "type": "receive"
    }
  ],
  "bytecode": "0x60806040523480156200001157600080fd5b5060405162001ebd38038062001ebd83398101604081905262000034916200020e565b600080546001600160a01b03191633179055805160031115620000b05760405162461bcd60e51b815260206004820152602a60248201527f5468657265206d7573742062652041746c65617374203320696e697469616c206044820152695369676e61747572657360b01b606482015260840160405180910390fd5b60005b81518110156200012b57600160026000848481518110620000e457634e487b7160e01b600052603260045260246000fd5b6020908102919091018101516001600160a01b03168252810191909152604001600020805460ff191691151591909117905580620001228162000325565b915050620000b3565b5080516200014190600190602084019062000170565b506001546000906200015590603c62000303565b905062000164606482620002e2565b600355506200036f9050565b828054828255906000526020600020908101928215620001c8579160200282015b82811115620001c857825182546001600160a01b0319166001600160a01b0390911617825560209092019160019091019062000191565b50620001d6929150620001da565b5090565b5b80821115620001d65760008155600101620001db565b80516001600160a01b03811681146200020957600080fd5b919050565b6000602080838503121562000221578182fd5b82516001600160401b038082111562000238578384fd5b818501915085601f8301126200024c578384fd5b81518181111562000261576200026162000359565b8060051b604051601f19603f8301168101818110858211171562000289576200028962000359565b604052828152858101935084860182860187018a1015620002a8578788fd5b8795505b83861015620002d557620002c081620001f1565b855260019590950194938601938601620002ac565b5098975050505050505050565b600082620002fe57634e487b7160e01b81526012600452602481fd5b500490565b600081600019048311821515161562000320576200032062000343565b500290565b60006000198214156200033c576200033c62000343565b5060010190565b634e487b7160e01b600052601160045260246000fd5b634e487b7160e01b600052604160045260246000fd5b611b3e806200037f6000396000f3fe60806040526004361061010d5760003560e01c80638f28397011610095578063c01a8c8411610064578063c01a8c8414610356578063c642747414610376578063ee22610b14610396578063f2d7f711146103b6578063f851a440146103d657600080fd5b80638f283970146102ce5780639ace38c2146102ee578063a0e67e2b1461031e578063b77bf6001461034057600080fd5b80634752c6b6116100dc5780634752c6b6146102145780635327f96e146102335780637065cb4814610253578063735631ad146102735780638253951a1461029357600080fd5b8063025e7c2714610155578063173825d91461019257806320ea8299146101b25780632f54bf6e146101d457600080fd5b3661015057341561014e5760405134815233907fe1fffcc4923d04b559f4d29a8bfc6cda04eb5b0d3c460751c2402c5c5cc9109c9060200160405180910390a25b005b600080fd5b34801561016157600080fd5b50610175610170366004611770565b6103f6565b6040516001600160a01b0390911681526020015b60405180910390f35b34801561019e57600080fd5b5061014e6101ad36600461169b565b610420565b3480156101be57600080fd5b506101c76106af565b6040516101899190611917565b3480156101e057600080fd5b506102046101ef36600461169b565b60026020526000908152604090205460ff1681565b6040519015158152602001610189565b34801561022057600080fd5b506003545b604051908152602001610189565b34801561023f57600080fd5b5061014e61024e3660046116bc565b6107d2565b34801561025f57600080fd5b5061014e61026e36600461169b565b610a6a565b34801561027f57600080fd5b5061014e61028e366004611770565b610c0b565b34801561029f57600080fd5b506102046102ae366004611788565b600760209081526000928352604080842090915290825290205460ff1681565b3480156102da57600080fd5b5061014e6102e936600461169b565b610d96565b3480156102fa57600080fd5b5061030e610309366004611770565b610e08565b6040516101899493929190611890565b34801561032a57600080fd5b50610333610ec6565b60405161018991906118ca565b34801561034c57600080fd5b5061022560045481565b34801561036257600080fd5b5061014e610371366004611770565b610f28565b34801561038257600080fd5b506102256103913660046116ee565b61105a565b3480156103a257600080fd5b5061014e6103b1366004611770565b6111b8565b3480156103c257600080fd5b5061030e6103d1366004611770565b6114cc565b3480156103e257600080fd5b50600054610175906001600160a01b031681565b6001818154811061040657600080fd5b6000918252602090912001546001600160a01b0316905081565b6000546001600160a01b031633146104535760405162461bcd60e51b815260040161044a906119d3565b60405180910390fd5b806001600160a01b03811661047a5760405162461bcd60e51b815260040161044a906119f7565b6001600160a01b038216600090815260026020526040902054829060ff1615156001146104dd5760405162461bcd60e51b81526020600482015260116024820152703cb7ba9030b932903737ba1027bbb732b960791b604482015260640161044a565b6001600160a01b0383166000908152600260205260408120805460ff191690555b6001805461050c9190611a85565b81101561064657836001600160a01b03166001828154811061053e57634e487b7160e01b600052603260045260246000fd5b6000918252602090912001546001600160a01b031614156105f35760018054610568908290611a85565b8154811061058657634e487b7160e01b600052603260045260246000fd5b600091825260209091200154600180546001600160a01b0390921691839081106105c057634e487b7160e01b600052603260045260246000fd5b9060005260206000200160006101000a8154816001600160a01b0302191690836001600160a01b03160217905550610646565b600180548061061257634e487b7160e01b600052603160045260246000fd5b600082815260209020810160001990810180546001600160a01b03191690550190558061063e81611ad7565b9150506104fe565b506106aa60018054806020026020016040519081016040528092919081815260200182805480156106a057602002820191906000526020600020905b81546001600160a01b03168152600190910190602001808311610682575b5050505050611512565b505050565b60606005805480602002602001604051908101604052809291908181526020016000905b828210156107c9576000848152602090819020604080516080810182526004860290920180546001600160a01b031683526001810154938301939093526002830180549293929184019161072690611a9c565b80601f016020809104026020016040519081016040528092919081815260200182805461075290611a9c565b801561079f5780601f106107745761010080835404028352916020019161079f565b820191906000526020600020905b81548152906001019060200180831161078257829003601f168201915b50505091835250506003919091015460ff16151560209182015290825260019290920191016106d3565b50505050905090565b6000546001600160a01b031633146107fc5760405162461bcd60e51b815260040161044a906119d3565b816001600160a01b0381166108235760405162461bcd60e51b815260040161044a906119f7565b816001600160a01b03811661084a5760405162461bcd60e51b815260040161044a906119f7565b6001600160a01b038416600090815260026020526040902054849060ff1615156001146108ad5760405162461bcd60e51b81526020600482015260116024820152703cb7ba9030b932903737ba1027bbb732b960791b604482015260640161044a565b6001600160a01b038416600090815260026020526040902054849060ff16156109145760405162461bcd60e51b815260206004820152601960248201527854686973204f776e657220616c72656164792065786973747360381b604482015260640161044a565b60005b6001548110156109ce57866001600160a01b03166001828154811061094c57634e487b7160e01b600052603260045260246000fd5b6000918252602090912001546001600160a01b031614156109bc57856001828154811061098957634e487b7160e01b600052603260045260246000fd5b9060005260206000200160006101000a8154816001600160a01b0302191690836001600160a01b031602179055506109ce565b806109c681611ad7565b915050610917565b506001600160a01b03808716600081815260026020526040808220805460ff1990811690915593891682528082208054909416600117909355915190917fac6e8398676cf37429d530b81144d7079e99f4fe9d28b0d88c4a749ceccbe8cd91a26040516001600160a01b038616907fac1e9ef41b54c676ccf449d83ae6f2624bcdce8f5b93a6b48ce95874c332693d90600090a2505050505050565b6000546001600160a01b03163314610a945760405162461bcd60e51b815260040161044a906119d3565b806001600160a01b038116610abb5760405162461bcd60e51b815260040161044a906119f7565b6001600160a01b038216600090815260026020526040902054829060ff1615610b225760405162461bcd60e51b815260206004820152601960248201527854686973204f776e657220616c72656164792065786973747360381b604482015260640161044a565b6001600160a01b038316600081815260026020526040808220805460ff19166001908117909155805480820182559083527fb10e2d527612073b26eecdfd717e6a320cf44b4afac2b0732d9fcbe2b7fa0cf60180546001600160a01b03191684179055517fac1e9ef41b54c676ccf449d83ae6f2624bcdce8f5b93a6b48ce95874c332693d9190a26106aa60018054806020026020016040519081016040528092919081815260200182805480156106a0576020028201919060005260206000209081546001600160a01b03168152600190910190602001808311610682575050505050611512565b3360008181526002602052604090205460ff161515600114610c3f5760405162461bcd60e51b815260040161044a906119af565b60008281526007602090815260408083203380855292529091205483919060ff1615610cad5760405162461bcd60e51b815260206004820152601b60248201527f5472616e73616374696f6e2061726561647920417070726f7665640000000000604482015260640161044a565b600084815260066020526040902060030154849060ff1615610d115760405162461bcd60e51b815260206004820152601b60248201527f5472616e736163696f6e20616c72656164792065786563757465640000000000604482015260640161044a565b6000858152600660205260409020546001600160a01b031680610d465760405162461bcd60e51b815260040161044a906119f7565b6000868152600760209081526040808320338085529252808320805460ff191690555188927f1544d71e15addfd98d795b9b07cba2535851a929a5591fe46a0e8f332ce9582c91a3505050505050565b6000546001600160a01b03163314610dc05760405162461bcd60e51b815260040161044a906119d3565b600080546001600160a01b0319166001600160a01b038316908117825560405190917fda7b0a7bc965abdec8a1a995575a891838264c2968e14bd456c5391827b7aa3091a250565b6006602052600090815260409020805460018201546002830180546001600160a01b03909316939192610e3a90611a9c565b80601f0160208091040260200160405190810160405280929190818152602001828054610e6690611a9c565b8015610eb35780601f10610e8857610100808354040283529160200191610eb3565b820191906000526020600020905b815481529060010190602001808311610e9657829003601f168201915b5050506003909301549192505060ff1684565b60606001805480602002602001604051908101604052809291908181526020018280548015610f1e57602002820191906000526020600020905b81546001600160a01b03168152600190910190602001808311610f00575b5050505050905090565b3360008181526002602052604090205460ff161515600114610f5c5760405162461bcd60e51b815260040161044a906119af565b60008281526007602090815260408083203380855292529091205483919060ff1615610fca5760405162461bcd60e51b815260206004820152601b60248201527f5472616e73616374696f6e2061726561647920417070726f7665640000000000604482015260640161044a565b6000848152600660205260409020546001600160a01b031680610fff5760405162461bcd60e51b815260040161044a906119f7565b6000858152600760209081526040808320338085529252808320805460ff191660011790555187927ff13bfe0b6ec5df39265dccb0a01a09aa4162489c7a083dc6670bde0255d02ca791a3611053856111b8565b5050505050565b3360008181526002602052604081205490919060ff1615156001146110915760405162461bcd60e51b815260040161044a906119af565b60045491506040518060800160405280876001600160a01b0316815260200186815260200185858080601f01602080910402602001604051908101604052809392919081815260200183838082843760009201829052509385525050506020918201819052600454815260068252604090819020835181546001600160a01b0319166001600160a01b0390911617815583830151600182015590830151805191926111449260028501929091019061156b565b50606091909101516003909101805460ff19169115159190911790556004805460019190600090611176908490611a2e565b909155505060405182907f08324b3d745b914e3abd4ffbfead91e3b78391a98c173202129215ab933adfbe90600090a26111af82610f28565b50949350505050565b3360008181526002602052604090205460ff1615156001146111ec5760405162461bcd60e51b815260040161044a906119af565b600082815260066020526040902060030154829060ff16156112505760405162461bcd60e51b815260206004820152601b60248201527f5472616e736163696f6e20616c72656164792065786563757465640000000000604482015260640161044a565b600080805b6001548110156112ed576000868152600760205260408120600180549192918490811061129257634e487b7160e01b600052603260045260246000fd5b60009182526020808320909101546001600160a01b0316835282019290925260400190205460ff16156112cd576112ca600184611a2e565b92505b60035483106112db57600191505b806112e581611ad7565b915050611255565b5080156110535760008581526006602052604080822060038101805460ff1916600190811790915581549082015492519193926001600160a01b039091169161133a9060028601906117f5565b60006040518083038185875af1925050503d8060008114611377576040519150601f19603f3d011682016040523d82523d6000602084013e61137c565b606091505b50509050801561148e576005805460018181018355600092909252835460049091027f036b6384b5eca791c62761152d0c79bb0604c104a5fb6f4eb0703f3154bb3db0810180546001600160a01b0319166001600160a01b03909316929092178255918401547f036b6384b5eca791c62761152d0c79bb0604c104a5fb6f4eb0703f3154bb3db183015560028401805485937f036b6384b5eca791c62761152d0c79bb0604c104a5fb6f4eb0703f3154bb3db201919061143b90611a9c565b6114469291906115ef565b506003918201549101805460ff191660ff909216151591909117905560405187907fbcf6a68a2f901be4a23a41b53acd7697893a7e34def4e28acba584da75283b6790600090a25b60405187907f492fd70ea712c765647b1676dbd9ea071e027174bc0cbbdb721f33658880271e90600090a250600301805460ff191690555050505050565b600581815481106114dc57600080fd5b60009182526020909120600490910201805460018201546002830180546001600160a01b039093169450909291610e3a90611a9c565b60008151603c6115229190611a66565b905061152f606482611a46565b60038190556040519081527f6b9d1e760d2bc35656f7015f224cfac8ae27f5bffb6fe3675e006ab0780952dd9060200160405180910390a15050565b82805461157790611a9c565b90600052602060002090601f01602090048101928261159957600085556115df565b82601f106115b257805160ff19168380011785556115df565b828001600101855582156115df579182015b828111156115df5782518255916020019190600101906115c4565b506115eb92915061166a565b5090565b8280546115fb90611a9c565b90600052602060002090601f01602090048101928261161d57600085556115df565b82601f1061162e57805485556115df565b828001600101855582156115df57600052602060002091601f016020900482015b828111156115df57825482559160010191906001019061164f565b5b808211156115eb576000815560010161166b565b80356001600160a01b038116811461169657600080fd5b919050565b6000602082840312156116ac578081fd5b6116b58261167f565b9392505050565b600080604083850312156116ce578081fd5b6116d78361167f565b91506116e56020840161167f565b90509250929050565b60008060008060608587031215611703578182fd5b61170c8561167f565b935060208501359250604085013567ffffffffffffffff8082111561172f578384fd5b818701915087601f830112611742578384fd5b813581811115611750578485fd5b886020828501011115611761578485fd5b95989497505060200194505050565b600060208284031215611781578081fd5b5035919050565b6000806040838503121561179a578182fd5b823591506116e56020840161167f565b60008151808452815b818110156117cf576020818501810151868301820152016117b3565b818111156117e05782602083870101525b50601f01601f19169290920160200192915050565b600080835482600182811c91508083168061181157607f831692505b602080841082141561183157634e487b7160e01b87526022600452602487fd5b818015611845576001811461185657611882565b60ff19861689528489019650611882565b60008a815260209020885b8681101561187a5781548b820152908501908301611861565b505084890196505b509498975050505050505050565b60018060a01b03851681528360208201526080604082015260006118b760808301856117aa565b9050821515606083015295945050505050565b6020808252825182820181905260009190848201906040850190845b8181101561190b5783516001600160a01b0316835292840192918401916001016118e6565b50909695505050505050565b60006020808301818452808551808352604092508286019150828160051b870101848801865b838110156119a157888303603f19018552815180516001600160a01b0316845287810151888501528681015160808886018190529061197e828701826117aa565b60609384015115159690930195909552509487019492509086019060010161193d565b509098975050505050505050565b6020808252600a908201526937b7363c9027bbb732b960b11b604082015260600190565b6020808252600a908201526941646d696e204f6e6c7960b01b604082015260600190565b60208082526018908201527f5468652061646472657373206973204e6f742056616c69640000000000000000604082015260600190565b60008219821115611a4157611a41611af2565b500190565b600082611a6157634e487b7160e01b81526012600452602481fd5b500490565b6000816000190483118215151615611a8057611a80611af2565b500290565b600082821015611a9757611a97611af2565b500390565b600181811c90821680611ab057607f821691505b60208210811415611ad157634e487b7160e01b600052602260045260246000fd5b50919050565b6000600019821415611aeb57611aeb611af2565b5060010190565b634e487b7160e01b600052601160045260246000fdfea26469706673582212202709d6b5c5302901b18714514985355d77b03f194e52f189d7fa0e34a08e827f64736f6c63430008040033",
  "linkReferences": {},
  "deployedLinkReferences": {}
}