{
  "_format": "hh-sol-artifact-1",
  "contractName": "ControlAccess",
  "sourceName": "contracts/Registry.sol",
  "abi": [
    {
      "anonymous": false,
      "inputs": [
        {
          "indexed": true,
          "internalType": "address",
          "name": "owner",
          "type": "address"
        }
      ],
      "name": "AddOwner",
      "type": "event"
    },
    {
      "anonymous": false,
      "inputs": [
        {
          "indexed": true,
          "internalType": "address",
          "name": "sender",
          "type": "address"
        },
        {
          "indexed": true,
          "internalType": "uint256",
          "name": "txId",
          "type": "uint256"
        }
      ],
      "name": "Approved",
      "type": "event"
    },
    {
      "anonymous": false,
      "inputs": [
        {
          "indexed": true,
          "internalType": "address",
          "name": "sender",
          "type": "address"
        },
        {
          "indexed": false,
          "internalType": "uint256",
          "name": "val",
          "type": "uint256"
        }
      ],
      "name": "Deposit",
      "type": "event"
    },
    {
      "anonymous": false,
      "inputs": [
        {
          "indexed": true,
          "internalType": "uint256",
          "name": "txId",
          "type": "uint256"
        }
      ],
      "name": "Executed",
      "type": "event"
    },
    {
      "anonymous": false,
      "inputs": [
        {
          "indexed": true,
          "internalType": "uint256",
          "name": "txId",
          "type": "uint256"
        }
      ],
      "name": "ExecutionFailed",
      "type": "event"
    },
    {
      "anonymous": false,
      "inputs": [
        {
          "indexed": true,
          "internalType": "address",
          "name": "owner",
          "type": "address"
        }
      ],
      "name": "RemoveOwner",
      "type": "event"
    },
    {
      "anonymous": false,
      "inputs": [
        {
          "indexed": false,
          "internalType": "uint256",
          "name": "requiredOwners",
          "type": "uint256"
        }
      ],
      "name": "RequiredOwnersUpdate",
      "type": "event"
    },
    {
      "anonymous": false,
      "inputs": [
        {
          "indexed": true,
          "internalType": "address",
          "name": "sender",
          "type": "address"
        },
        {
          "indexed": true,
          "internalType": "uint256",
          "name": "txId",
          "type": "uint256"
        }
      ],
      "name": "RevokeAccess",
      "type": "event"
    },
    {
      "anonymous": false,
      "inputs": [
        {
          "indexed": true,
          "internalType": "uint256",
          "name": "txId",
          "type": "uint256"
        }
      ],
      "name": "Submit",
      "type": "event"
    },
    {
      "anonymous": false,
      "inputs": [
        {
          "indexed": true,
          "internalType": "address",
          "name": "admin",
          "type": "address"
        }
      ],
      "name": "TransferAdmin",
      "type": "event"
    },
    {
      "inputs": [
        {
          "internalType": "address",
          "name": "from",
          "type": "address"
        },
        {
          "internalType": "address",
          "name": "to",
          "type": "address"
        }
      ],
      "name": "OwnerTransfer",
      "outputs": [],
      "stateMutability": "nonpayable",
      "type": "function"
    },
    {
      "inputs": [
        {
          "internalType": "address",
          "name": "owner",
          "type": "address"
        }
      ],
      "name": "addOwner",
      "outputs": [],
      "stateMutability": "nonpayable",
      "type": "function"
    },
    {
      "inputs": [],
      "name": "admin",
      "outputs": [
        {
          "internalType": "address",
          "name": "",
          "type": "address"
        }
      ],
      "stateMutability": "view",
      "type": "function"
    },
    {
      "inputs": [
        {
          "internalType": "address",
          "name": "newAdmin",
          "type": "address"
        }
      ],
      "name": "changeAdmin",
      "outputs": [],
      "stateMutability": "nonpayable",
      "type": "function"
    },
    {
      "inputs": [
        {
          "internalType": "address",
          "name": "",
          "type": "address"
        }
      ],
      "name": "isOwner",
      "outputs": [
        {
          "internalType": "bool",
          "name": "",
          "type": "bool"
        }
      ],
      "stateMutability": "view",
      "type": "function"
    },
    {
      "inputs": [
        {
          "internalType": "uint256",
          "name": "",
          "type": "uint256"
        }
      ],
      "name": "owners",
      "outputs": [
        {
          "internalType": "address",
          "name": "",
          "type": "address"
        }
      ],
      "stateMutability": "view",
      "type": "function"
    },
    {
      "inputs": [
        {
          "internalType": "address",
          "name": "owner",
          "type": "address"
        }
      ],
      "name": "removeOwner",
      "outputs": [],
      "stateMutability": "nonpayable",
      "type": "function"
    }
  ],
  "bytecode": "0x608060405234801561001057600080fd5b50610aa2806100206000396000f3fe608060405234801561001057600080fd5b506004361061007d5760003560e01c80635327f96e1161005b5780635327f96e146100fa5780637065cb481461010d5780638f28397014610120578063f851a4401461013357600080fd5b8063025e7c2714610082578063173825d9146100b25780632f54bf6e146100c7575b600080fd5b610095610090366004610972565b610146565b6040516001600160a01b0390911681526020015b60405180910390f35b6100c56100c036600461091f565b610170565b005b6100ea6100d536600461091f565b60026020526000908152604090205460ff1681565b60405190151581526020016100a9565b6100c5610108366004610940565b6103ff565b6100c561011b36600461091f565b610697565b6100c561012e36600461091f565b610838565b600054610095906001600160a01b031681565b6001818154811061015657600080fd5b6000918252602090912001546001600160a01b0316905081565b6000546001600160a01b031633146101a35760405162461bcd60e51b815260040161019a9061098a565b60405180910390fd5b806001600160a01b0381166101ca5760405162461bcd60e51b815260040161019a906109ae565b6001600160a01b038216600090815260026020526040902054829060ff16151560011461022d5760405162461bcd60e51b81526020600482015260116024820152703cb7ba9030b932903737ba1027bbb732b960791b604482015260640161019a565b6001600160a01b0383166000908152600260205260408120805460ff191690555b6001805461025c9190610a24565b81101561039657836001600160a01b03166001828154811061028e57634e487b7160e01b600052603260045260246000fd5b6000918252602090912001546001600160a01b0316141561034357600180546102b8908290610a24565b815481106102d657634e487b7160e01b600052603260045260246000fd5b600091825260209091200154600180546001600160a01b03909216918390811061031057634e487b7160e01b600052603260045260246000fd5b9060005260206000200160006101000a8154816001600160a01b0302191690836001600160a01b03160217905550610396565b600180548061036257634e487b7160e01b600052603160045260246000fd5b600082815260209020810160001990810180546001600160a01b03191690550190558061038e81610a3b565b91505061024e565b506103fa60018054806020026020016040519081016040528092919081815260200182805480156103f057602002820191906000526020600020905b81546001600160a01b031681526001909101906020018083116103d2575b50505050506108aa565b505050565b6000546001600160a01b031633146104295760405162461bcd60e51b815260040161019a9061098a565b816001600160a01b0381166104505760405162461bcd60e51b815260040161019a906109ae565b816001600160a01b0381166104775760405162461bcd60e51b815260040161019a906109ae565b6001600160a01b038416600090815260026020526040902054849060ff1615156001146104da5760405162461bcd60e51b81526020600482015260116024820152703cb7ba9030b932903737ba1027bbb732b960791b604482015260640161019a565b6001600160a01b038416600090815260026020526040902054849060ff16156105415760405162461bcd60e51b815260206004820152601960248201527854686973204f776e657220616c72656164792065786973747360381b604482015260640161019a565b60005b6001548110156105fb57866001600160a01b03166001828154811061057957634e487b7160e01b600052603260045260246000fd5b6000918252602090912001546001600160a01b031614156105e95785600182815481106105b657634e487b7160e01b600052603260045260246000fd5b9060005260206000200160006101000a8154816001600160a01b0302191690836001600160a01b031602179055506105fb565b806105f381610a3b565b915050610544565b506001600160a01b03808716600081815260026020526040808220805460ff1990811690915593891682528082208054909416600117909355915190917fac6e8398676cf37429d530b81144d7079e99f4fe9d28b0d88c4a749ceccbe8cd91a26040516001600160a01b038616907fac1e9ef41b54c676ccf449d83ae6f2624bcdce8f5b93a6b48ce95874c332693d90600090a2505050505050565b6000546001600160a01b031633146106c15760405162461bcd60e51b815260040161019a9061098a565b806001600160a01b0381166106e85760405162461bcd60e51b815260040161019a906109ae565b6001600160a01b038216600090815260026020526040902054829060ff161561074f5760405162461bcd60e51b815260206004820152601960248201527854686973204f776e657220616c72656164792065786973747360381b604482015260640161019a565b6001600160a01b038316600081815260026020526040808220805460ff19166001908117909155805480820182559083527fb10e2d527612073b26eecdfd717e6a320cf44b4afac2b0732d9fcbe2b7fa0cf60180546001600160a01b03191684179055517fac1e9ef41b54c676ccf449d83ae6f2624bcdce8f5b93a6b48ce95874c332693d9190a26103fa60018054806020026020016040519081016040528092919081815260200182805480156103f0576020028201919060005260206000209081546001600160a01b031681526001909101906020018083116103d25750505050506108aa565b6000546001600160a01b031633146108625760405162461bcd60e51b815260040161019a9061098a565b600080546001600160a01b0319166001600160a01b038316908117825560405190917fda7b0a7bc965abdec8a1a995575a891838264c2968e14bd456c5391827b7aa3091a250565b60008151603c6108ba9190610a05565b90506108c76064826109e5565b60038190556040519081527f6b9d1e760d2bc35656f7015f224cfac8ae27f5bffb6fe3675e006ab0780952dd9060200160405180910390a15050565b80356001600160a01b038116811461091a57600080fd5b919050565b600060208284031215610930578081fd5b61093982610903565b9392505050565b60008060408385031215610952578081fd5b61095b83610903565b915061096960208401610903565b90509250929050565b600060208284031215610983578081fd5b5035919050565b6020808252600a908201526941646d696e204f6e6c7960b01b604082015260600190565b60208082526018908201527f5468652061646472657373206973204e6f742056616c69640000000000000000604082015260600190565b600082610a0057634e487b7160e01b81526012600452602481fd5b500490565b6000816000190483118215151615610a1f57610a1f610a56565b500290565b600082821015610a3657610a36610a56565b500390565b6000600019821415610a4f57610a4f610a56565b5060010190565b634e487b7160e01b600052601160045260246000fdfea26469706673582212203b8acc0c4762cf97471db9036e8b8163dcc6080f115e3c3350c5fb84261beb2864736f6c63430008040033",
  "linkReferences": {},
  "deployedLinkReferences": {}
}